:100000000C9465000C948D000C948D000C948D0064
:100010000C948D000C948D000C948D000C948D002C
:100020000C948D000C948D000C948D000C94EA1AA5
:100030000C948D000C948D000C948D000C948D000C
:100040000C9409020C948D000C941E040C94500422
:100050000C948D000C948D000C948D000C948D00EC
:100060000C9424210C948D00000000080002010073
:100070000003040700000000000000000102040863
:100080001020408001020408102001020408102002
:10009000040404040404040402020202020203032E
:1000A00003030303000000002300260029000000D2
:1000B0000000250028002B0000000000240027007D
:1000C0002A0020018004BB0C1F2011241FBECFEF8B
:1000D000D8E0DEBFCDBF12E0A0E0B1E0ECECFBE485
:1000E00002C005900D92A837B107D9F728E0A8E71C
:1000F000B2E001C01D92AE30B207E1F710E0C5E6F4
:10010000D0E004C02197FE010E94C425C136D1076A
:10011000C9F70E94E8050C94CE220C94000026E05A
:1001200040E855E260E070E083E696E00E94BC03A0
:1001300068E171E083E696E00E94FC046FE171E003
:1001400083E696E00E94FC046EE271E083E696E0AE
:100150000E94FC0460E476E08EE196E00E94FE05D9
:1001600088E293E00E94A10B8DE193E00E94650C70
:1001700084E193E00E94D31388ED92E00E941D0F6A
:1001800081110DC06BE371E083E696E00E94FC04F0
:1001900061E671E083E696E00E94FC04FFCF8BEA03
:1001A00092E00E94090D81110DC06EE671E083E6B8
:1001B00096E00E94FC0461E671E083E696E00E940E
:1001C000FC04FFCF88E992E00E94301183E892E0BE
:1001D0000E94C91588E792E00E94351468E873E12F
:1001E00080E090E00E94840263E971E083E696E09B
:1001F0000E94FC046CE971E083E696E00E94FC0436
:1002000088E293E00C94420C8EEF95E00E94DF1898
:1002100084E193E00E94E91388ED92E00E94580F78
:100220008BEA92E00E94440D88E992E00E946511F9
:1002300083E892E00E94F31588E792E00C94DC14C6
:10024000EF92FF920F931F93CF93DF93CDB7DEB75B
:1002500028970FB6F894DEBF0FBECDBF60E68EE1E3
:1002600096E00E94AE0642E068EC70E08EE196E017
:100270000E944A0690931D0680931C0600E023E02E
:1002800030E048EC50E0BC018EEF95E00E9464182D
:1002900040E050E065E872E4CE0101960E949F08BC
:1002A00029813A814B815C816EEF75E088E293E0B1
:1002B0000E94050A8DE193E00E94510C40E050E05D
:1002C00064EB73E4CE0101960E949F0829813A8174
:1002D0004B815C8168E273E084E193E00E94B21399
:1002E00040E050E06BEF72E4CE0105960E949F085B
:1002F00040E050E066EF72E4CE0101960E949F0854
:10030000ED80FE800F81188529813A814B815C81C7
:1003100068E273E088ED92E00E94DB0E40E050E876
:1003200064E473E4CE0105960E949F0840E050E02B
:1003300063E373E4CE0101960E949F08ED80FE8086
:100340000F81188529813A814B815C8168E273E0D5
:100350008BEA92E00E94C30C40E050E465E873E44D
:10036000CE0105960E949F0840E050E066E673E4E7
:10037000CE0101960E949F08ED80FE800F811885B6
:1003800029813A814B815C8168E273E088E992E0DF
:100390000E94EC1040E050E465E973E4CE0105965C
:1003A0000E949F0840E050E863E973E4CE010196A3
:1003B0000E949F08ED80FE800F81188529813A8177
:1003C0004B815C8168E273E083E892E00E948315D0
:1003D00040E050E86EEA73E4CE0101960E949F0867
:1003E00009811A812B813C814DE153E068E273E081
:1003F00088E792E00E94091428960FB6F894DEBFB1
:100400000FBECDBFDF91CF911F910F91FF90EF9065
:1004100008951F920F920FB60F9211242F933F93BE
:100420008F939F93AF93BF9380915B0690915C06EF
:10043000A0915D06B0915E0630915A0623E0230F2D
:100440002D3758F50196A11DB11D20935A068093B2
:100450005B0690935C06A0935D06B0935E06809168
:100460005F0690916006A0916106B09162060196C8
:10047000A11DB11D80935F0690936006A093610655
:10048000B0936206BF91AF919F918F913F912F9151
:100490000F900FBE0F901F90189526E8230F02961D
:1004A000A11DB11DD2CF2FB7F89460915B0670915A
:1004B0005C0680915D0690915E062FBF08953FB760
:1004C000F89480915F0690916006A0916106B091CA
:1004D000620626B5A89B05C02F3F19F00196A11D05
:1004E000B11D3FBFBA2FA92F982F8827BC01CD017E
:1004F000620F711D811D911D42E0660F771F881FDD
:10050000991F4A95D1F708958F929F92AF92BF920B
:10051000CF92DF92EF92FF926B017C010E945F020B
:100520004B015C01C114D104E104F104E9F00E9423
:10053000EB1D0E945F02681979098A099B09683ED0
:1005400073408105910570F321E0C21AD108E108DA
:10055000F10888EE880E83E0981EA11CB11CC1141E
:10056000D104E104F10429F7FF90EF90DF90CF90E0
:10057000BF90AF909F908F900895789484B58260DB
:1005800084BD84B5816084BD85B5826085BD85B537
:10059000816085BDEEE6F0E0808181608083E1E8E6
:1005A000F0E010828081826080838081816080831E
:1005B000E0E8F0E0808181608083E1EBF0E0808121
:1005C00084608083E0EBF0E0808181608083EAE7F3
:1005D000F0E080818460808380818260808380817C
:1005E000816080838081806880831092C10008953B
:1005F000FC01918D228D892F90E0805C9F4F821BA2
:1006000091098F7399270895FC01918D828D981718
:1006100031F0828DE80FF11D858D90E008958FEF08
:100620009FEF0895FC01918D828D981761F0A28D46
:10063000AE0FBF2FB11D5D968C91928D9F5F9F7302
:10064000928F90E008958FEF9FEF089586E794E0F2
:10065000892B49F080E090E0892B29F00E947604F4
:1006600081110C9400000895FC01A48DA80FB92FEE
:10067000B11DA35ABF4F2C91848D90E001968F73CA
:100680009927848FA689B7892C93A089B1898C91E9
:1006900080648C93938D848D981306C00288F389AF
:1006A000E02D80818F7D80830895CF93DF93EC01CF
:1006B000888D8823B9F0AA89BB89E889F9898C914A
:1006C00085FD03C0808186FD0DC00FB607FCF7CF06
:1006D0008C9185FFF2CF808185FFEDCFCE010E9406
:1006E0003403E9CFDF91CF910895EF92FF920F93FA
:1006F0001F93CF93DF93EC01F62E81E0888F9B8DC3
:100700008C8D981316C0E889F989808185FF11C006
:10071000EE89FF896083E889F9898081806480831C
:1007200081E090E0DF91CF911F910F91FF90EF90CA
:1007300008950B8D10E00F5F1F4F0F731127E02EF0
:100740008C8D8E110CC00FB607FCFACFE889F989A1
:10075000808185FFF5CFCE010E943403F1CFEB8D70
:10076000EC0FFD2FF11DE35AFF4FF0820B8FEA894A
:10077000FB8980818062D3CFCF92DF92EF92FF928C
:100780001F93CF93DF93EC016A017B01122FE8895D
:10079000F98982E08083C11481EED806E104F10476
:1007A000A1F060E079E08DE390E0A70196010E945E
:1007B00083252150310941095109569547953795AF
:1007C0002795211580E1380798F0E889F98910828A
:1007D00060E874E88EE190E0A70196010E9483250D
:1007E000215031094109510956954795379527956B
:1007F000EC85FD853083EE85FF852083188EEC899E
:10080000FD891083EA89FB89808180618083EA8980
:10081000FB89808188608083EA89FB898081806888
:100820008083EA89FB8980818F7D8083DF91CF91EE
:100830001F91FF90EF90DF90CF9008951F920F923D
:100840000FB60F9211242F938F939F93EF93FF93E3
:10085000E0917306F09174068081E0917906F09141
:100860007A0682FD1BC0908180917C068F5F8F731A
:1008700020917D06821741F0E0917C06F0E0ED5971
:10088000F94F958F80937C06FF91EF919F918F9107
:100890002F910F900FBE0F901F9018958081F4CF6D
:1008A0001F920F920FB60F9211242F933F934F93E5
:1008B0005F936F937F938F939F93AF93BF93EF93C8
:1008C000FF9383E696E00E943403FF91EF91BF917E
:1008D000AF919F918F917F916F915F914F913F91D8
:1008E0002F910F900FBE0F901F90189583E696E002
:1008F0000E94F80221E0892B09F420E0822F08955C
:10090000E3E6F6E01382128288EE93E0A0E0B0E026
:1009100084839583A683B78389EA91E0918380835A
:1009200085EC90E09587848784EC90E097878687B4
:1009300080EC90E0918B808B81EC90E0938B828BAC
:1009400082EC90E0958B848B86EC90E0978B868B85
:10095000118E128E138E148E0895AF92BF92CF9285
:10096000DF92EF92FF920F931F93CF93DF936C016F
:100970007B018B01040F151FEB015E01AE18BF0850
:10098000C017D10759F06991D601ED91FC91019002
:10099000F081E02DC6010995892B79F7C501DF911A
:1009A000CF911F910F91FF90EF90DF90CF90BF906C
:1009B000AF900895FB0101900020E9F73197AF0156
:1009C000461B570BDC01ED91FC910280F381E02D79
:1009D00009946115710511F00C94DA0490E080E03F
:1009E0000895DC01ED91FC910190F081E02D0994D6
:1009F00065EB71E00C94DA040F931F93CF93DF93B0
:100A00008C01D0E0C0E06115710519F00E94DA0494
:100A1000EC01C8010E94F8048C0F9D1FDF91CF915B
:100A20001F910F9108958F929F92AF92BF92EF9274
:100A3000FF920F931F93CF93DF93CDB7DEB7A197AC
:100A40000FB6F894DEBF0FBECDBF7C01FA01CB011B
:100A500019A2223008F42AE08E010F5D1F4F822E6A
:100A6000912CB12CA12CBF01A50194010E948325DA
:100A7000F901CA016A300CF5605DD8016E938D01F1
:100A8000232B242B252B79F790E080E0109721F081
:100A9000BD01C7010E94DA04A1960FB6F894DEBF2B
:100AA0000FBECDBFDF91CF911F910F91FF90EF90BF
:100AB000BF90AF909F908F900895695CDECFCF92EA
:100AC000DF92EF92FF920F931F93CF93DF93EC018E
:100AD0006A017B012115310579F4E881F9810190E2
:100AE000F081E02D642FDF91CF911F910F91FF9046
:100AF000EF90DF90CF9009942A303105E9F42AE095
:100B0000F7FE1AC06DE20E94F1048C0144275527BC
:100B1000BA014C195D096E097F092AE0CE010E94D5
:100B20001305800F911FDF91CF911F910F91FF90BF
:100B3000EF90DF90CF900895B701A601CE01DF912D
:100B4000CF911F910F91FF90EF90DF90CF900C9479
:100B500013059A01AB01770F660B770B0C945F05B9
:100B60000F931F93CF93DF93EC010E94A9058C0193
:100B7000CE010E94F804800F911FDF91CF911F9149
:100B80000F9108952115310541F4DC01ED91FC919F
:100B90000190F081E02D642F09940C9413059A01C3
:100BA000AB0170E060E00C94C2050F931F93CF93EC
:100BB000DF93EC010E94CF058C01CE010E94F80466
:100BC000800F911FDF91CF911F910F91089508958C
:100BD0000E94BD020E94E7050E948F00C6E2D3E09A
:100BE0000E9404012097E1F30E942603F9CF30E030
:100BF00020E050E040E0CB960C94E807EF92FF92A3
:100C00000F931F93CF93DF937C01EB018EE497E06A
:100C10000E948A1F8701055C1F4FC8010E94DC07E4
:100C2000F701D283C183BE0190E080E00E94EB23F4
:100C3000AB01BC01C8010E944408C0E030E020E0E4
:100C400050E040E06C2FC8010E94E807CF5FC03140
:100C5000A9F7DF91CF911F910F91FF90EF90089529
:100C60009A01CB96211540E1340730F030E020E0C6
:100C700040E050E10C94E80750E040E0FBCF411128
:100C800002C00C94F70530E020E040E050E1CB9644
:100C90000C94E807EF92FF920F931F93CF93DF938B
:100CA000433008F050C04150242F30E0F901B4E047
:100CB000EE0FFF1FBA95E1F7DC01AE0FBF1F9A964A
:100CC000EC909A97E11027C09A964C939A97969633
:100CD0007C936E93959799969C938E9398974423C3
:100CE00051F1413039F456E0C5E0D3E014E007E0BB
:100CF000A2E0FA2EE80FF91FF78E02A3D90112968F
:100D000064E0AA0FBB1F6A95E1F7A80FB91F1C93F7
:100D1000D1A3C3A354A344E0220F331F4A95E1F7A4
:100D2000255E3F4F820F931FDF91CF911F910F914F
:100D3000FF90EF9008955CE0CBE0D9E01AE00DE081
:100D400078E0F72ED7CF90E080E0EECFFC01148260
:100D5000138215821282118210820895AF92BF927F
:100D6000DF92EF92FF920F931F93CF93DF931F9227
:100D7000CDB7DEB78C01D62E7C0183E0E80EF11CE6
:100D80005801EBE1AE0EB11CC7010E94A606F6E0C9
:100D9000EF0EF11CAE14BF04B9F7F80117A212A6AA
:100DA00016A215A217AA12AE16AA15AA60E4C801C7
:100DB000CB960E94BB07F801D0826D2DCE01019623
:100DC0000E94BB078981F80183AF0F90DF91CF911B
:100DD0001F910F91FF90EF90DF90BF90AF9008951B
:100DE0000F931F93CF93DF93EC01142F8C85413029
:100DF00009F05CC083FF5EC0613009F07BC0885F92
:100E000001C080518C874FEF0FEF8C858F738C87DB
:100E100080E1489FA00111246C818D859E850E94F0
:100E20003006E0E10E9FA00111246F818D859E8523
:100E30000E9430068C85143009F07AC010E08031B1
:100E400008F413E090EF980F903108F4166090EEDC
:100E5000980F903108F41C608053803108F41960B9
:100E60008D859E856E8110FF73C041E00E943F0614
:100E70008D859E85688511FF6EC041E00E943F060A
:100E80008D859E856D8112FF69C041E00E943F06FD
:100E90008D859E85698513FF64C041E00E943F06F1
:100EA0008C85DF91CF911F910F910895423039F4D5
:100EB00083FFA2CF613009F0A4CF805FA3CF43307E
:100EC00009F49ACF443009F09ECF6130A9F48F5FC6
:100ED0008C878C858F738C87282F30E0F901E05048
:100EE000FF4F803158F4A0E1B1E0A21BB30B4C914D
:100EF00000818BCF885086CF8150EACF90EF980F3A
:100F0000903138F470974081E0E2F1E0E21BF30B9E
:100F1000EFCF8052803138F4A0E3B1E0A21BB30BD5
:100F20004C91B097E5CFF0974081E0E4F1E0EECF4F
:100F300090E023E0959587952A95E1F710E08830B9
:100F400091050CF08DCF88549E4FFC01108188CF05
:100F50000E94F7058DCF0E94F70592CF0E94F705FA
:100F600097CF0E94F7059CCFDC01ED91FC91019099
:100F7000F081E02D0994FC0160830895CF93DF9305
:100F8000D62FC42FFC0160818EE497E00E94941F4D
:100F90006D2F8EE497E00E942E1F6C2F8EE497E059
:100FA0000E942E1F8EE497E0DF91CF910C941C20BD
:100FB00040E060E00C94BE07CF93DF93EC018EE439
:100FC00097E00E948A1FCE01DF91CF910C94D80741
:100FD000FF920F931F93CF93DF93C62FF42E152FFD
:100FE000022FD32FFC0160818EE497E00E94941FB2
:100FF000F4E0CF9FB00111246A5F7F4F8EE497E049
:101000000E942E1F6F2D712F8EE497E00E94B4076F
:10101000612F70E08EE497E00E94B407602F7D2F6F
:101020008EE497E00E94B4076D2F70E08EE497E0A5
:101030000E94B4078EE497E0DF91CF911F910F914A
:10104000FF900C941C201F93CF93DF93EC01162F7D
:1010500068818EE497E00E94941F612F8EE497E0F0
:101060000E942E1F8EE497E00E941C2041E06881C0
:101070008EE497E00E9416208EE497E00E940B1FFA
:10108000DF91CF911F910895CF92DF92EF92FF925F
:101090001F93CF93DF93EC01CB01BA0126E636E62E
:1010A00046E65FE30E94FA249B01AC0160E27CEB20
:1010B0008EEB95E40E94432320E030E040E85FE3BC
:1010C0000E94D12220E030E040E05FE30E94D22283
:1010D0000E9428246B017C0160E0CE010E9423085D
:1010E000182F482F4F76406160E0CE010E94BE0766
:1010F000C701B6010E94BC23462F6EEFCE010E94AD
:10110000BE07412F60E0CE010E94BE0765E070E09F
:1011100080E090E00E948402412F416A60E0CE01AD
:10112000DF91CF911F91FF90EF90DF90CF900C94C3
:10113000BE07FC0110821182128213820895CF92A1
:10114000DF92EF92FF92CF93DF93EC016A017B0174
:1011500020E030E044EB53E4C701B6010E94F524DF
:1011600018165CF420E030E044EB53E4C701B6010C
:101170000E94D1226B017C01EBCF20E030E0A9017D
:10118000C701B6010E943E2387FF0BC020E030E07C
:1011900044EB53E4C701B6010E94D2226B017C01EB
:1011A000ECCFC882D982EA82FB82DF91CF91FF9097
:1011B000EF90DF90CF900895CF93DF9300D000D0D1
:1011C000CDB7DEB720E030E044EB53E40E94FA24D0
:1011D000AB01BC01CE0101960E949F0869817A8112
:1011E0008B819C810F900F900F900F90DF91CF918A
:1011F00008954F925F926F927F928F929F92AF92DB
:10120000BF92CF92DF92EF92FF920F931F93CF93F3
:101210002A013B0148015901FC01C080D180E280D4
:10122000F380A9019801CB01B2010E94F5241816A0
:10123000E4F420E030E044EB53E4C501B8010E943F
:10124000D2224B015C01A7019601C301B2010E94A9
:10125000F524181654F420E030E044EB53E4C701C1
:10126000B6010E94D2226B017C01A3019201C70149
:10127000B6010E94F52487FD08C0C1E0A7019601D0
:10128000C501B4010E94F52487FDC0E08C2FCF91E9
:101290001F910F91FF90EF90DF90CF90BF90AF9094
:1012A0009F908F907F906F905F904F900895CF9216
:1012B000DF92EF92FF92CF93DF9300D000D0CDB7B3
:1012C000DEB7FC01CB01BA0120813181428153811B
:1012D0000E94D2226B017C0120E030E044EB53E419
:1012E0000E94F52418164CF420E030E044EB53E45F
:1012F000C701B6010E94D122EDCF20E030E0A90164
:10130000C701B6010E943E2387FF0BC020E030E0FA
:1013100044EB53E4C701B6010E94D2226B017C0169
:10132000ECCFB701A601CE0101960E949F0869810A
:101330007A818B819C810F900F900F900F90DF919D
:10134000CF91FF90EF90DF90CF900895CF92DF92F2
:10135000EF92FF92CF93DF9300D000D0CDB7DEB7EE
:101360009A01AB01FC0160817181828193810E94AD
:10137000D1226B017C0120E030E044EB53E40E9479
:10138000F52418163CF420E030E044EB53E4C701A8
:10139000B601EDCF20E030E0A901C701B6010E94FF
:1013A0003E2387FF0BC020E030E044EB53E4C7014D
:1013B000B6010E94D2226B017C01ECCFB701A601DD
:1013C000CE0101960E949F0869817A818B819C8160
:1013D0000F900F900F900F90DF91CF91FF90EF90B3
:1013E000DF90CF900895FC016081718182819381AB
:1013F000089520E030E044EB53E4FC01608171810A
:10140000828193810E94432308954F925F926F924D
:101410007F92AF92BF92CF92DF92EF92FF920F93A3
:101420001F93CF93DF93CDB7DEB7E0970FB6F89455
:10143000DEBF0FBECDBF6C015B0129013A0144EF55
:1014400051E06FE070E001960E94FC14C60108961E
:101450000E94990840E050E060E672E4CE0189966F
:101460000E949F0840E050E066E072E4CE018D9655
:101470000E949F08E9A4FAA40BA51CA52DA53EA5D2
:101480004FA558A9B601C6010C960E94A71640E0C8
:1014900050E062EE72E4CE0181960E949F0840E027
:1014A00050E064EB72E4CE0185960E949F08E9A0AB
:1014B000FAA00BA11CA12DA13EA14FA158A5B601D8
:1014C000C6018D579F4F0E94A71640E050E060E391
:1014D00073E4CE0149960E949F0840E050E866E11F
:1014E00073E4CE014D960E949F08E98CFA8C0B8D17
:1014F0001C8D2D8D3E8D4F8D58A1B601C601865095
:101500009F4F0E94A71640E050E06CE673E4CE01C6
:1015100041960E949F0840E050E064E573E4CE01EC
:1015200045960E949F08E988FA880B891C892D89B5
:101530003E894F89588DB601C6018F589E4F0E9433
:10154000A71640E050E464E973E4CE0109960E94D6
:101550009F0840E050E069E873E4CE010D960E94D8
:101560009F08E984FA840B851C852D853E854F856F
:101570005889B601C60188519E4F0E94A71640E0C7
:1015800050E062EB73E4CE0101960E949F0840E0B8
:1015900050E464EA73E4CE0105960E949F08E98056
:1015A000FA800B811C812D813E814F815885B601C7
:1015B000C601815A9D4F0E94A716F6011082B7827C
:1015C000A6824086518662867386E0960FB6F894AE
:1015D000DEBF0FBECDBFDF91CF911F910F91FF9066
:1015E000EF90DF90CF90BF90AF907F906F905F9023
:1015F0004F900895CF93DF9300D000D0CDB7DEB7E2
:10160000FC012081211112C040E050E0BA01CE015E
:1016100001960E949F0869817A818B819C810F903D
:101620000F900F900F90DF91CF9108958681978151
:101630000E94B818F4CF8F929F92AF92BF92CF9230
:10164000DF92EF92FF920F931F93CF93DF93CDB76B
:10165000DEB728970FB6F894DEBF0FBECDBFFC01F2
:10166000208110E000E0222379F18C01045F1F4FFC
:1016700068017C01FAE2EF1AFDEFFF0AC6010E9441
:1016800026176D837E838F839887CE0105960E94EF
:10169000F3094B015C01C8010E94261769837A8314
:1016A0008B839C83CE0101960E94F3099B01AC01C0
:1016B000C501B4010E943E2387FD860127E7C20EC3
:1016C000D11CCE14DF04D1F6C80128960FB6F894C9
:1016D000DEBF0FBECDBFDF91CF911F910F91FF9065
:1016E000EF90DF90CF90BF90AF909F908F90089534
:1016F000FC012081222311F1AC01445F5F4F30E0F7
:1017000020E04617570749F02F5F3F4F49585F4F7A
:1017100026303105B1F72FEF3FEF2150310937FF68
:1017200002C025E030E067E7629FA001639F500D93
:101730001124445F5F4F840F951F089590E080E06F
:1017400008958F929F92AF92BF92CF92DF92EF92C5
:10175000FF920F931F93CF93DF9300D000D0CDB7AC
:10176000DEB76C015C018FEFA81AB80AC5010E94B0
:10177000071520E030E040E850E470E060E0D6017A
:1017800016968D919C910E94BF19C5010E94241547
:10179000F60186809780811104C0C4010E94DF1881
:1017A000F4CF40E050E064E373E4CE0101960E9480
:1017B0009F0849815A816B817C81E12CF12C00E8E2
:1017C00010E430E020E0C4010E94E719D60116962B
:1017D0008D919C910E943519D6011696ED91FC9140
:1017E000882321F0CF010E94DF18F0CF20E030E005
:1017F00040E850E470E060E0CF010E94BF19C501ED
:101800000E942415D6011696ED91FC91179781112F
:1018100004C0CF010E94DF18F2CF18964D915D9160
:101820006D917C911B97E12CF12C00E810E430E0E5
:1018300020E0CF010E94E719F601868197810E947E
:101840003519D60116962D913C91882321F0C901B6
:101850000E94DF18F1CFC9010E94DB1881E0F60178
:1018600080830F900F900F900F90DF91CF911F9179
:101870000F91FF90EF90DF90CF90BF90AF909F902F
:101880008F900895FC012081222351F020E030E068
:1018900040E850E470E060E0868197810C94BF19C5
:1018A0000895CF93DF93EC01209100073091010759
:1018B000409102075091030769E070E001960E9491
:1018C00044161882DF91CF910895CF93DF93EC01F6
:1018D00001960E94661681E08883DF91CF9108957A
:1018E0000F931F93CF93DF9300D000D0CDB7DEB717
:1018F0008C01FC018081882351F06230710589F1EF
:101900007CF461157105B9F06130710529F10F9012
:101910000F900F900F90DF91CF911F910F9108952D
:101920006330710519F16430710589F740E050E0CA
:1019300068EC72E404C040E050E060EF71E4CE0176
:1019400001960E949F0849815A816B817C81C80160
:1019500001960E948316DBCF40E050E06FE273E413
:10196000EECF40E050E062E872E4E9CF40E050E0C2
:101970006CE073E4E4CF40E050E064EB72E480E0BC
:1019800097E00C949F084F925F926F927F928F9294
:101990009F92AF92BF92CF92DF92EF92FF920F93FE
:1019A0001F93CF93DF93EC016B0149015A0127018B
:1019B000380104960E94990843E050E061E171E02B
:1019C000CE010A960E94960DCE0187960E94990834
:1019D0004C825D826E827F82DB82CA82198218828B
:1019E000198618868FA298A6A9A6BAA61BA61CA619
:1019F000DF91CF911F910F91FF90EF90DF90CF90EB
:101A0000BF90AF909F908F907F906F905F904F901E
:101A100008951F93CF93DF93EC010A960E942D0E39
:101A2000182F882349F08A819B810E941B0B998380
:101A300088831CA681E08BA7812FDF91CF911F9116
:101A40000895CF93DF93EC01E881F9816183BF01B1
:101A50008A819B810E94780B998388831CA6DF91E1
:101A6000CF9108950F931F93FC0104811581268166
:101A7000378147A150A561A572A5808191810E94FF
:101A8000EB171F910F9108950F931F93CF93DF933F
:101A9000EC018BA58823D9F08E01065F1F4FC8018A
:101AA0000E949B0E8CA5811117C04FA158A569A556
:101AB0007AA5888199810E94BE17882341F0888188
:101AC00099810E9488171986188681E08CA7DF917A
:101AD000CF911F910F910895CE010E94320D60E0C9
:101AE000882359F0C8010E94BE0D882369F0C801FF
:101AF0000E94C10D882341F061E0CE01DF91CF91BA
:101B00001F910F910C94210D888199810E944E178D
:101B10002885398528173907D4F6C8010E94DB0DBE
:101B200088859985019699878887D1CFEF92FF9212
:101B30000F931F93CF93DF93EC017B018A0121E088
:101B400030E044E650E060E070E00A960E946E1AD1
:101B5000188219821A821B821C821D821E82F986BB
:101B6000E8868FEF9FEF9A8F898F1C8F0B8FDF9105
:101B7000CF911F910F91FF90EF900895FC01868106
:101B80000895FC018681882311F0168287810895CB
:101B9000CF93DF93EC01660F771FE885F985E60F99
:101BA000F71F62E080810E94301ECE010A96DF910D
:101BB000CF910C949C1AFC012081222359F025819D
:101BC000211108C021E02583128E118E70E060E0A3
:101BD0000C94C80D0895EF92FF920F931F93CF932B
:101BE000DF937C018B01D0E0C0E0D7015B968D9143
:101BF0009C915C97C817D907DCF41896ED91FC917D
:101C0000CE01880F991FE80FF91F808191818017FD
:101C1000910711F42196E9CF0E949A1E0197D1F7FE
:101C200080E0DF91CF911F910F91FF90EF90089589
:101C300081E0F7CFCF93660F771FDC011896ED9107
:101C4000FC91E60FF71FC08160E08C2F0E946C1E94
:101C500061E08C2FCF910C94301EEF92FF920F9386
:101C60001F93CF93DF93EC018B8D9C8D10E000E0F0
:101C7000029744F480E0DF91CF911F910F91FF9084
:101C8000EF9008958B8D9C8D081719073CF4B801CF
:101C9000CE010E941A0E0F5F1F4FF4CF10E000E03C
:101CA0008B8D9C8D0817190764F5E885F985C801A7
:101CB000880F991FE80FF91FF080E180B801CE016D
:101CC0000E94C80D64E670E080E090E00E9484020B
:101CD0008F2D0E949A1E892B69F26F2D7E2DCE01C9
:101CE0000E94EB0D882331F2B801CE010E941A0E3A
:101CF00064E670E080E090E00E9484020F5F1F4F76
:101D0000CFCF10E000E08B8D9C8D0817190784F46D
:101D1000E885F985C801880F991FE80FF91F8081B0
:101D20000E949A1E019709F4A5CF0F5F1F4FEBCFBA
:101D300081E08883A0CF0F931F93CF93DF93EC01B3
:101D40008D818823E9F0CE010A960E94DF1A88234C
:101D5000B9F0898D9A8D880F991FE885F985E80F6C
:101D6000F91F80810E949A1E8C01698D7A8DCE01A7
:101D70000E941A0E012B49F481E08E838F831D820D
:101D8000DF91CF911F910F910895698D7A8D6F5FCB
:101D90007F4F7A8F698F8B8D9C8D6817790724F020
:101DA00081E08E831F82EBCFCE01DF91CF911F9117
:101DB0000F910C94C80D4F925F926F927F928F9209
:101DC0009F92AF92BF92CF92DF92EF92FF920F93CA
:101DD0001F93CF93DF93EC016B0149015A01270157
:101DE000380104960E949908CE010A960E94A20F1B
:101DF000CE01C6960E9499084C825D826E827F82D7
:101E0000DB82CA8219821882198618868EAA9FAA36
:101E1000A8AEB9AE1AAE1BAEDF91CF911F910F9154
:101E2000FF90EF90DF90CF90BF90AF909F908F90FA
:101E30007F906F905F904F9008951F93CF93DF93A3
:101E4000EC010A960E94E20F182F882349F08A813C
:101E50009B810E941B0B998388831BAE81E08AAF14
:101E6000812FDF91CF911F910895CF93DF93EC01E4
:101E7000E881F9816083BF018A819B810E94780B90
:101E8000998388831BAEDF91CF9108950F931F93A1
:101E9000FC01048115812681378146A957A960ADCF
:101EA00071AD808191810E94EB171F910F91089570
:101EB0000F931F93CF93DF93EC018AAD8823D9F062
:101EC0008E01065F1F4FC8010E9443108BAD811128
:101ED00017C04EA95FA968AD79AD888199810E942C
:101EE000BE17882341F0888199810E94881719863E
:101EF000188681E08BAFDF91CF911F910F910895EC
:101F0000CE010E94460F60E0882379F08881998194
:101F10000E944E17288539852817390764F7C801AC
:101F20000E94E510882341F061E0CE01DF91CF915E
:101F30001F910F910C94350F88859985019699878B
:101F40008887D9CFCF93DF93EC0121E030E048EED2
:101F500053E060E070E04D960E946E1A85E79FECBA
:101F6000A2E8BBE388839983AA83BB83FE013896EA
:101F700084E1DF011D928A95E9F71C8EDF91CF91F4
:101F80000895CF93DF93CDB7DEB72C970FB6F894B3
:101F9000DEBF0FBECDBFBC01685F7F4FCE01019693
:101FA0000E94381369857A858B859C850E94B523AC
:101FB000CB012C960FB6F894DEBF0FBECDBFDF91DC
:101FC000CF910895FF920F931F93CF93DF93EC016E
:101FD0008C01085F1F4FC8010E94C312F82E88238E
:101FE00009F44AC061E070E0C8010E94E11170E0AC
:101FF00060E0C8010E94801264E070E0C8010E94A5
:10200000921270E060E0C8010E94AA121C821D8238
:102010001E821F8202E310E0CE010E94C10F092E32
:10202000000CAA0BBB0B4C815D816E817F81840FFC
:10203000951FA61FB71F8C839D83AE83BF8364E665
:1020400070E080E090E00E9484020150110921F7C5
:102050006C817D818E819F8122E330E040E050E001
:102060000E94A5252C833D834E835F83CE014D9630
:102070000E949C1A81E08C8F8F2DDF91CF911F9150
:102080000F91FF9008954F925F926F927F928F927F
:102090009F92AF92BF92EF92FF920F931F93CF93B5
:1020A000DF93EC018C8D882309F453C07E018DE110
:1020B000E80EF11CC7010E94DF1A882309F449C009
:1020C000488059806A807B80CE010E94C10F8C01BC
:1020D000288139814A815B8160E070E080E89FE37C
:1020E0000E94D1224B015C016C817D818E819F8198
:1020F0000E94ED239B01AC01C501B4010E94FA24AA
:102100004B015C01B801110F880B990B0E94ED2364
:10211000A30192010E94FA249B01AC01C501B40104
:102120000E94D2220E94B5236C837D838E839F837D
:10213000C701DF91CF911F910F91FF90EF90BF905A
:10214000AF909F908F907F906F905F904F900C9486
:102150009C1ADF91CF911F910F91FF90EF90BF904C
:10216000AF909F908F907F906F905F904F90089569
:102170000F931F93CF93DF93EC010E94C10F092EA1
:10218000000CAA0BBB0B4C815D816E817F818A01A3
:102190009B0106501F4F2F4F3F4F081719072A0763
:1021A0003B078CF04A5F51096109710921E08417EE
:1021B0009507A607B7070CF020E0822FDF91CF919B
:1021C0001F910F91089521E0F8CFFC01248D21117A
:1021D0000C94B81080E008954F925F926F927F92B6
:1021E0008F929F92AF92BF92CF92DF92EF92FF9227
:1021F0000F931F93CF93DF93EC016B0149015A01B9
:102200002701380104960E94990870E060E0CE0131
:102210000A960E94A411CE010D960E9499084C8244
:102220005D826E827F82DB82CA8219821882198661
:1022300018868D869E86AF86B88A198A1A8ADF919B
:10224000CF911F910F91FF90EF90DF90CF90BF90B3
:10225000AF909F908F907F906F905F904F90089578
:10226000CF93DF93EC010A960E94A9118A819B818A
:102270000E941B0B998388831A8A81E0898BDF91E6
:10228000CF910895CF93DF93EC01E881F9816283C8
:10229000BF018A819B810E94780B998388831A8A67
:1022A000DF91CF9108950F931F93FC010481158155
:1022B0002681378145855685678570898081918122
:1022C0000E94EB171F910F910895CF93DF93EC01BC
:1022D00089898823A9F08A89811115C04D855E8579
:1022E0006F857889888199810E94BE17882341F083
:1022F000888199810E9488171986188681E08A8BC7
:10230000DF91CF910895CE010E94531160E08823A0
:1023100081F0888199810E944E1728853985281778
:10232000390774F7CE010A960E94C011882331F054
:1023300061E0CE01DF91CF910C944211888599859F
:10234000019699878887DCCFFC01728361831082B4
:102350000895CF93DF93EC0160E089810E94301EE5
:1023600081E08883DF91CF910895FC0181810E94F3
:10237000EC1D21E0853F91400CF420E0822F089570
:10238000FC01208121110C94B51180E00895CF93B8
:10239000DF93D62FC42F6EE170E08EE497E00E94A9
:1023A0009E1F6D2F8EE497E00E942E1F6C2F8EE4EF
:1023B00097E00E942E1F8EE497E0DF91CF910C945E
:1023C0001C200F931F93DC01FB0168307105A8F4FA
:1023D000E451FE4E0C94C425F41107120C12111294
:1023E00016121B122012251206E011E825E93DE322
:1023F0000D931D932D933C931397462F4295440FB5
:10240000407E61E0CD011F910F910C94C7110FE147
:1024100015E82BE63FE3ECCF06EF18E22CE93FE3AB
:10242000E7CF0CE51FE822EC3FE3E2CF0EEA17E42A
:1024300021E130E4DDCF0AE017ED23E230E4D8CF2C
:1024400005E81BEE21E430E4D3CF03E313E32BE8EC
:1024500030E4CECFCF93C62F6EE170E08EE497E0EC
:102460000E949E1F6C2F8EE497E00E942E1F8EE428
:1024700097E00E941C2041E050E06EE170E08EE4A5
:1024800097E00E9419208EE497E00E940B1FC82F4E
:102490008EE497E00E941C208C2FCF910895CF935B
:1024A000C62F6EE170E08EE497E00E949E1F6C2FB5
:1024B0008EE497E00E942E1F8EE497E00E941C207D
:1024C0006EE170E08EE497E00E949E1F41E050E0D4
:1024D0006EE170E08EE497E00E9419208EE497E0B0
:1024E0000E94041F892BD1F38EE497E00E940B1FFA
:1024F000C82F8EE497E00E941C208C2FCF91089566
:102500001F93CF93DF93EC01162F62E00E944F12CE
:102510008C7F482F412B62E0CE01DF91CF911F913C
:102520000C94C7110F931F93CF93DF938C01EB0192
:1025300060E00E944F12AE01440F551F440F551F1B
:10254000837E482B60E0C801DF91CF911F910F91EE
:102550000C94C7110F931F93CF93DF938C01EB0162
:1025600060E00E944F12AE0195E0440F551F9A950E
:10257000E1F78F79482B60E0C801DF91CF911F917F
:102580000F910C94C711CF93DF93EC018EE497E089
:102590000E948A1F6AE0CE010E942A12883421F02C
:1025A00080E0DF91CF9108956BE0CE010E942A1266
:1025B0008433B1F76CE0CE010E942A12833381F795
:1025C00061E070E0CE010E94E11170E060E0CE01B8
:1025D0000E94801264E070E0CE010E94921270E0CE
:1025E00060E0CE010E94AA128FE195E8ABE6BFE35E
:1025F00088839983AA83BB8381E0D3CFCF93DF9372
:10260000C62F6EE170E08EE497E00E949E1F6C2F53
:102610008EE497E00E942E1F8EE497E00E941C201B
:102620006EE170E08EE497E00E949E1F42E050E071
:102630006EE170E08EE497E00E9419208EE497E04E
:102640000E94041F892BD1F38EE497E00E940B1F98
:10265000D82F8EE497E00E940B1FC82F8EE497E0DE
:102660000E941C2080E09D2F8C2BDF91CF9108953C
:10267000CF92DF92EF92FF920F931F93CF93DF934E
:102680008C01EB0163E0CE010E94FE12BC01990FA8
:10269000880B990B0E94ED236B017C016889798975
:1026A000072E000C880B990B0E94ED239B01AC01B7
:1026B000C701B6010E94D122288139814A815B81FC
:1026C0000E94FA246C837D838E839F8367E0CE0112
:1026D0000E94FE12BC01990F880B990B0E94ED23FA
:1026E0006B017C016A897B89072E000C880B990B92
:1026F0000E94ED239B01AC01C701B6010E94D122CB
:10270000288139814A815B810E94FA246887798710
:102710008A879B8765E0CE010E94FE12BC01990F5B
:10272000880B990B0E94ED239B01AC016881798194
:102730008A819B810E94FA246C877D878E879F8780
:102740008CE0FE013496D80101900D928A95E1F754
:10275000C801DF91CF911F910F91FF90EF90DF9013
:10276000CF900895CF92DF92EF92FF920F931F9335
:10277000CF93DF93EC018B0169017A0104960E94EB
:1027800099081B830A8319821882CC82DD82EE822B
:10279000FF821886DF91CF911F910F91FF90EF90EC
:1027A000DF90CF900895CF93DF93EC018A819B81D6
:1027B0000E941B0B9983888381E08887DF91CF91EA
:1027C0000895FB01108211821282CB0103960C94B2
:1027D0007315CF93DF93EC0188858823B9F04C8182
:1027E0005D816E817F81888199810E94BE178823D7
:1027F00069F068817981CE010E94E1136881798155
:102800008A819B810E94780B99838883DF91CF9185
:1028100008958F929F92AF92BF92CF92DF92EF92E4
:10282000FF920F931F93CF93DF93EC017B016A011B
:102830004801590106960E949908D982C882FD82F2
:10284000EC821B821A828E829F82A886B9861A86A3
:10285000DF91CF911F910F91FF90EF90DF90CF907C
:10286000BF90AF909F908F900895CF93DF93EC012E
:102870008C819D810E941B0B9B838A8381E08A87C8
:10288000DF91CF910895EF92FF920F931F93CF9313
:10289000DF937C01EB0160EC71E083E696E00E943F
:1028A000FC0467EC71E083E696E00E94E90468812D
:1028B00070E04AE050E083E696E00E94B0056EEDDD
:1028C00071E083E696E00E94E904698170E04AE0E5
:1028D00050E083E696E00E94B00562EF71E083E687
:1028E00096E00E94E9046A8170E04AE050E083E6E5
:1028F00096E00E94B00561E072E083E696E00E94F7
:10290000E9048E010D5F1F4FC8010E9455154AE072
:1029100050E0BC0183E696E00E94D505C8010E9404
:1029200055158832914098F061E272E083E696E0B6
:102930000E94FC0470E060E0F70180819181DF91EA
:10294000CF911F910F91FF90EF900C94700C8881A4
:10295000811129C08A8181111DC08981811111C015
:10296000C8010E94551565E070E08F36910520F38F
:1029700067E272E083E696E00E94FC0464E070E0A7
:10298000DBCF66E372E083E696E00E94FC0462E03F
:1029900070E0D2CF67E472E083E696E00E94FC0428
:1029A00063E070E0C9CF66E572E083E696E00E94DE
:1029B000FC0461E070E0C0CFCF93DF93EC018A8527
:1029C0008823B9F04E815F81688579858A819B81F2
:1029D0000E94BE17882369F06A817B81CE010E9424
:1029E00043146A817B818C819D810E94780B9B833B
:1029F0008A83DF91CF910895FC01728361831082F5
:102A0000548343830895FC0181810C94EC1DCF9382
:102A1000DF93EC0162E089810E94301E81E08883AF
:102A2000DF91CF910895CF93DF93EC0189810E94CC
:102A3000EC1D21E04B815C818417950708F020E0B4
:102A4000822FDF91CF910895FC01208121110C94F8
:102A5000131580E00895FC016233710528F580812B
:102A600091818617970700F50196DC01AA0FBB1F1D
:102A7000AE0FBF1F2D913C91918380838081918106
:102A80008617970749F00196DC01AA0FBB1FAE0F0E
:102A9000BF1F2D933C93F0CF6F5F7F4F660F771F63
:102AA000E60FF71F518340830895FC013296DC0145
:102AB000AA59BF4F30E020E060E070E0CB014191C7
:102AC00051914115510531F0640F751F811D911D04
:102AD0002F5F3F4FEA17FB0791F750E040E00E945D
:102AE0008325C9010895FC0132969C012A593F4F64
:102AF00011921192E217F307D9F7FC0111821082AB
:102B000008950C9473154F925F926F927F928F92FB
:102B10009F92AF92BF92CF92DF92EF92FF920F936C
:102B20001F93CF93DF93EC016B0149015A012701F9
:102B3000380104960E94990848EC50E060E170E08A
:102B4000CE010A960E94FC14CE010F960E949908AD
:102B50004C825D826E827F82DB82CA8219821882F9
:102B6000198618868F86988AA98ABA8A1B8A1C8A2F
:102B7000DF91CF911F910F91FF90EF90DF90CF9059
:102B8000BF90AF909F908F907F906F905F904F908D
:102B90000895CF93DF93EC010A960E9407158A816E
:102BA0009B810E941B0B998388831C8A81E08B8BFD
:102BB000DF91CF910895CF93DF93EC016881798104
:102BC0008A819B810E94780B998388831C8ADF917C
:102BD000CF910895FC014785508961897289808170
:102BE00091810C94BE17EF92FF920F931F93CF9396
:102BF000DF93EC018B898823A9F08C89811119C09E
:102C00004F85588969897A89888199810E94BE1780
:102C1000882341F0888199810E9488171986188637
:102C200081E08C8BDF91CF911F910F91FF90EF90FE
:102C30000895CE010E94EA15811109C0CE01DF91ED
:102C4000CF911F910F91FF90EF900C94DB1588812D
:102C500099810E944E177C01888599858E159F0564
:102C60000CF7088119810D5F1F4FCE010A960E9453
:102C70000315AC01B701C8010E942B158885998501
:102C8000019699878887CECFCF92DF92EF92FF92FD
:102C90000F931F93CF93DF93EC018B0169017A01AE
:102CA0000E949908CE0107960E94271C1E830D835F
:102CB000C882D982EA82FB821C82DF91CF911F9168
:102CC0000F91FF90EF90DF90CF9008950F931F9397
:102CD000CF93DF93EC018C01095F1F4F6D817E81E3
:102CE000C8010E94BA1CCE010E94F3090E94B523BC
:102CF00041E0C8010E94501D81E08C83DF91CF919B
:102D00001F910F9108950F931F93CF93DF9300D0DE
:102D100000D0CDB7DEB78C0149835A836B837C83A7
:102D2000FC018481882351F0CE0101960E94F309B1
:102D30000E94B523C80107960E94F51C0F900F90C2
:102D40000F900F90DF91CF911F910F9108952F92C7
:102D50003F924F925F926F927F928F929F92AF922B
:102D6000BF92CF92DF92EF92FF920F931F93CF9378
:102D7000DF93CDB7DEB728970FB6F894DEBF0FBE4E
:102D8000CDBF6C0178876F8349015A012701380153
:102D90008C010D5F1F4FC8010E94811576018BE6E3
:102DA000E80EF11CC7010E94990816019FE6290E42
:102DB000311CC1010E949908F601ED58FF4FFE83B6
:102DC000ED83CF010E949908F601108211821282D0
:102DD000C8010E947315F601E759FF4F8F8198854E
:102DE00091838083F701408251826282738240E046
:102DF00050E0BA01CE0101960E949F0889819A8114
:102E0000AB81BC81F10180839183A283B383ED8187
:102E1000FE8180829182A282B38228960FB6F894B6
:102E2000DEBF0FBECDBFDF91CF911F910F91FF90FD
:102E3000EF90DF90CF90BF90AF909F908F907F905A
:102E40006F905F904F903F902F9008950F931F9336
:102E5000CF93DF9300D000D0CDB7DEB78C01FC015B
:102E6000E759FF4F808191810E94FA0A69837A8332
:102E70008B839C83F801ED58FF4F40815181628123
:102E80007381CE0101960E9457090F900F900F9009
:102E90000F90DF91CF911F910F9108950F931F9382
:102EA000CF93DF93CDB7DEB728970FB6F894DEBF88
:102EB0000FBECDBF8C010E94261769837A838B8356
:102EC0009C83F801E159FF4F4081518162817381F8
:102ED000CE0101960E94A6096D837E838F83988719
:102EE000CE0105960E94F90920E030E845E853E458
:102EF0000E94FA240E94B523CB0128960FB6F894BD
:102F0000DEBF0FBECDBFDF91CF911F910F9108950E
:102F1000CF93DF93EC01C159DF4F0E9426176883DE
:102F200079838A839B83DF91CF9108950F931F93B9
:102F3000CF93DF9300D000D0CDB7DEB78C01FC017A
:102F4000E759FF4F808191810E94FA0A69837A8351
:102F50008B839C83F801E559FF4F40815181628149
:102F60007381CE0101960E9457090F900F900F9028
:102F70000F90DF91CF911F910F910895CF92DF9223
:102F8000EF92FF920F931F93CF93DF9300D000D067
:102F9000CDB7DEB78C0149835A836B837C830E9453
:102FA00096176B017C01C8010E942617AB01BC017A
:102FB00097018601CE0101960E94F9080F900F90AB
:102FC0000F900F90DF91CF911F910F91FF90EF9095
:102FD000DF90CF9008958F929F92AF92BF92EF9221
:102FE000FF920F931F93CF93DF93CDB7DEB7609718
:102FF0000FB6F894DEBF0FBECDBF7C0149875A875C
:103000006B877C870D871E872F87388B0E949617CA
:103010004B015C01C7010E942617AB01BC01950161
:103020008401CE0109960E94F908882391F081E07D
:1030300060960FB6F894DEBF0FBECDBFDF91CF9183
:103040001F910F91FF90EF90BF90AF909F908F9046
:103050000895C7010E9496174B015C01C7010E94A9
:103060002617AB01BC0195018401CE010D960E948B
:10307000F9088111DCCFC7010E9426176D837E837A
:103080008F8398870D851E852F85388949855A85B8
:103090006B857C85CE0105960E94F9088111C7CF0A
:1030A000C7010E94961769837A838B839C830D8561
:1030B0001E852F85388949855A856B857C85CE018B
:1030C00001960E94F908B4CFAF92BF92CF92DF92DF
:1030D000EF92FF920F93CF93DF93EC015B017A01A4
:1030E000690130E020E040E050E0BA010C960E9417
:1030F0007322198218821B821A8281E090E09987DC
:103100008887BD82AC820A871B86DF8ACE8A188EAA
:10311000198E1A8E1B8E21E0C216D104F9F064F4C8
:10312000CD28F1F0DF91CF910F91FF90EF90DF90DC
:10313000CF90BF90AF90089582E0C816D104A9F057
:1031400023E0C216D10471F784E090E09F838E8360
:1031500084E0EE0CFF1C8A95E1F704C082E090E069
:103160009F838E83FD8EEC8EDDCF83E090E0F8CFE1
:10317000CF92DF92EF92FF92CF93DF93EC016881C1
:10318000798190E080E00E94EB236B017C016C8DE3
:103190007D8D90E080E00E94EB239B01AC01C70194
:1031A000B6010E944323DF91CF91FF90EF90DF9013
:1031B000CF900C94DC08FC011182108208950F93CB
:1031C0001F93CF93DF93EC018B85882309F448C0CC
:1031D0008E01045F1F4FC8010E94AF22882309F4AB
:1031E0003FC04E8168858C819D810E94F0068A8156
:1031F0009B810097E9F0019759F1888D998DAA8DEF
:10320000BB8D0097A105B10561F00197A109B10936
:10321000888F998FAA8FBB8F892B8A2B8B2B09F4D0
:103220001B86C801DF91CF911F910F910C9444220E
:10323000888199812C8D3D8D21503109821793070A
:1032400019F419821882D9CF019699838883D5CF32
:1032500088819981009711F48C8D9D8D0197F5CF10
:10326000DF91CF911F910F910895FC0183850895FF
:10327000CF92DF92EF92FF920F931F93CF93DF9342
:10328000CDB7DEB72A970FB6F894DEBF0FBECDBF1D
:103290008C019A01AB0160E070E080E89FE30E943E
:1032A000432320EC31EE44E65CE40E94FA246B01F7
:1032B0007C01F801648D758D90E080E00E94EB2325
:1032C0009B01AC01C701B6010E9443230E94BC23AD
:1032D000AB01BC0130E020E0CE0101960E947322D8
:1032E0008AE0FE013196D8011C9601900D928A95D4
:1032F000E1F72A960FB6F894DEBF0FBECDBFDF917F
:10330000CF911F910F91FF90EF90DF90CF90089594
:10331000CF92DF92EF92FF920F931F93CF93DF93A1
:10332000EC0169011B86488F598F6A8F7B8FB8012A
:10333000A7010E943819DB82CA82C114D10489F026
:10334000CA94CD28B1F081E08B87CE010C96DF9135
:10335000CF911F910F91FF90EF90DF90CF900C9441
:10336000B4228A85882341F082E090E0998788879B
:10337000EACF8A858823C1F381E090E0F7CFEF920E
:10338000FF920F931F9379018A019B0140E050E067
:10339000BA010E9488191F910F91FF90EF90089534
:1033A000EF92FF920F931F9341155105610571052F
:1033B00059F4FC011386108E118E128E138E1F91FC
:1033C0000F91FF90EF9008950E948819F8CF2F92E7
:1033D0003F924F925F926F927F928F929F92AF92A5
:1033E000BF92CF92DF92EF92FF920F931F93CF93F2
:1033F000DF9300D000D0CDB7DEB76C0149835A838C
:103400006B837C83190127013801CE0101960E944C
:10341000F9094B015C01F601648D758D90E080E047
:103420000E94EB23A50194010E94FA2420E030E0E1
:10343000A9010E94F52487FD39C0CE0101960E94A2
:10344000F9094B015C01F601648D758D90E080E017
:103450000E94EB23A50194010E94FA2420E030E0B1
:1034600040E05FE30E94D2220E94B523AB0170E0EE
:1034700060E0830172019101C6010E94D0190F9092
:103480000F900F900F90DF91CF911F910F91FF90B0
:10349000EF90DF90CF90BF90AF909F908F907F90F4
:1034A0006F905F904F903F902F900895CE010196BE
:1034B0000E94F9094B015C01F601648D758D90E065
:1034C00080E00E94EB23A50194010E94FA2420E0F1
:1034D00030E040E05FE30E94D122C6CFFC01408390
:1034E0005183628373831582168217821086368712
:1034F0002587148211861286138614860895FC018E
:10350000858596858130910551F08230910549F08D
:1035100020E030E0A901892B61F40C945F020C9447
:1035200053020E94530228EE33E040E050E00E9434
:103530008325CA01B9010895CF93DF93EC010E945E
:103540007F1A69877A878B879C8788819981AA816E
:10355000BB810097A105B10539F419861A861B862F
:103560001C86DF91CF9108958D839E83AF83B887AA
:1035700081E08C83F6CF0F931F93CF93DF93EC0101
:103580008C818823B9F0CE010E947F1AAB01BC0167
:1035900089859A85AB85BC850D811E812F813885F3
:1035A000800F911FA21FB31F481759076A077B0797
:1035B00008F01C82DF91CF911F910F910895CF9356
:1035C000DF93EC010E94BB1A9C8181E08927DF9187
:1035D000CF9108951F920F920FB60F9211242F933F
:1035E0003F934F935F936F937F938F939F93AF938B
:1035F000BF93EF93FF938091050787FF26C010923A
:10360000850010928400809105078F5F80930507E5
:1036100080910507082E000C990B209104072817AC
:10362000190629F024F0809105078C308CF18091E7
:1036300084009091850084349C4908F4FEC08091F8
:103640008400909185000496FAC080910507082EA9
:10365000000C990B2091040728171906A1F29CF27F
:103660003091050726E03203F0011124EA5FF84F9C
:10367000808186FFC8CF309105073203F001112405
:10368000EA5FF84F808160E08F730E946C1EBBCFB1
:103690003091050726E03203F0011124EA5FF84F6C
:1036A0008581882309F48EC0409105073091050774
:1036B0004203D0011124AA5FB84F3203F001112454
:1036C000EA5FF84F13964D915C9181819281841746
:1036D000950708F04AC0409105073091050732036D
:1036E000F0011124EA5FF84F4203D0011124AA5FD0
:1036F000B84F15968C9141815281840F952F911D61
:103700009283818340910507309105074203D001E0
:103710001124AA5FB84F3203F0011124EA5FF84F79
:1037200013964D915C91818192818417950708F4DD
:1037300049C040910507309105073203F00111247B
:10374000EA5FF84F4203D0011124AA5FB84F1396E5
:103750008D919C9192838183309105073203F00112
:103760001124EA5FF84F15822DC040910507309172
:1037700005073203F0011124EA5FF84F4203D0013C
:103780001124AA5FB84F15963C9181819281831BC9
:103790009109928381834091050730910507420387
:1037A000D0011124AA5FB84F3203F0011124EA5F5F
:1037B000F84F13964D915C9181819281481759077A
:1037C00008F0B7CF80918400909185003091050773
:1037D00026E03203F0011124EA5FF84F4181528163
:1037E000840F951F9093890080938800309105077E
:1037F0003203F0011124EA5FF84F808186FF0CC08C
:10380000309105073203F0011124EA5FF84F8081FF
:1038100061E08F730E946C1EFF91EF91BF91AF9199
:103820009F918F917F916F915F914F913F912F91D8
:103830000F900FBE0F901F90189580E49CE9909315
:103840008900809388008FEF80930507E5CFE09192
:103850000407EC3088F421E02E0F20930407DC01EC
:10386000EC93B6E0EB9FF0011124EA5FF84F88EB90
:103870009BE09283818308952FEFFC0120830895BC
:10388000DF92EF92FF920F931F93CF93DF93EC01A0
:10389000D62E7A01890188818C3008F062C061E0FF
:1038A0008D2D0E94301E888196E0899FF0011124A1
:1038B000EA5FF84F9D2D9F736081607C692B608368
:1038C00020E232E02E193F0937FF02C02D5F3F4F43
:1038D0003595279535952795298320E639E0201BD6
:1038E000310B37FF02C02D5F3F4F3595279535953A
:1038F00027952A832CE0622F0E947725829FB001B2
:10390000112430E020E096E0AB01420F531F949F5A
:10391000F001959FF00D1124EA5FF84F408146FDBC
:1039200016C02F5F3F4F2C30310571F781110FC04A
:103930001092800082E080938100109285001092A6
:103940008400B19A80916F00826080936F00E8815B
:1039500086E0E89FF0011124EA5FF84F80818064DF
:1039600080838881DF91CF911F910F91FF90EF901D
:10397000DF90089520E639E040E252E00C94401CCC
:10398000DC01EC91EC3080F511968C91119728E8D0
:1039900030E0281B310987FD3395220F331F220F9A
:1039A000331F6217730784F012968C9128E532E07A
:1039B000281B310987FD3395220F331F220F331F38
:1039C000621773070CF49B018FB7F89496E0E99F98
:1039D000F0011124EA5FF84F22503109220F331F02
:1039E000328321838FBF15820895AF92BF92CF9209
:1039F000DF92EF92FF920F931F93CF93DF93EC012F
:103A0000603282E078070CF03EC0653B710514F02F
:103A100064EB70E0898148E8A42EB12CA81AB108A3
:103A200087FDB394AA0CBB1CAA0CBB1C0B2C000C6E
:103A3000CC08DD0877FF02C070E060E0072E000CC4
:103A4000880B990B2A8108E512E0021B110927FD5A
:103A50001395000F111F000F111F012E000C220BD8
:103A6000330B3F932F931F930F9314EBE12EF12C05
:103A700000E010E020E030E0A9010E94C31E0F909A
:103A80000F900F900F90CE01DF91CF911F910F916A
:103A9000FF90EF90DF90CF90BF90AF900C94C01C40
:103AA0009F92AF92BF92CF92DF92EF92FF920F93CD
:103AB0001F93CF93DF93EC01942E442309F47EC02F
:103AC000603232E073070CF03EC0653B710514F0C4
:103AD00064EB70E08981A8E8AA2EB12CA81AB1087D
:103AE00087FDB394AA0CBB1CAA0CBB1C0B2C000CAE
:103AF000CC08DD0877FF02C070E060E0072E000C04
:103B0000880B990B2A8108E512E0021B110927FD99
:103B10001395000F111F000F111F012E000C220B17
:103B2000330B3F932F931F930F9314EBE12EF12C44
:103B300000E010E020E030E0A9010E94C31E0F90D9
:103B40000F900F900F90E881EC3060F5298188E8A4
:103B500090E0821B910927FD9395880F991F880F8C
:103B6000991F681779077CF02A8188E592E0821B0B
:103B7000910927FD9395880F991F880F991F681742
:103B800079070CF4CB012FB7F89436E0E39FF001EE
:103B90001124EA5FF84F0297880F991F948383835B
:103BA00095822FBFDF91CF911F910F91FF90EF90E2
:103BB000DF90CF90BF90AF909F900895DF91CF910D
:103BC0001F910F91FF90EF90DF90CF90BF90AF903B
:103BD0009F900C94F51C08958E3008F08E50209123
:103BE000170190E4299F900111248770822B809304
:103BF0007C0080917A00806480937A0080917A00C2
:103C000086FDFCCF809178009091790008958330F3
:103C100081F028F4813099F08230A9F0089587303E
:103C2000A9F08830C9F08430B1F4809180008F7D94
:103C300003C0809180008F7780938000089584B5C1
:103C40008F7784BD089584B58F7DFBCF8091B000C0
:103C50008F778093B00008958091B0008F7DF9CF69
:103C6000CF93DF9390E0FC01E458FF4F24918057FD
:103C70009F4FFC0184918823C9F090E0880F991F21
:103C8000FC01E854FF4FA591B491FC01E255FF4FB0
:103C9000C591D49161110DC09FB7F8948C91209576
:103CA00082238C938881282328839FBFDF91CF9123
:103CB0000895623051F49FB7F8943C91822F80951B
:103CC00083238C93E8812E2BEFCF8FB7F894EC9160
:103CD0002E2B2C938FBFEACF1F93CF93DF93162FFA
:103CE000282F30E0F901E859FF4F8491F901E45899
:103CF000FF4FD491F901E057FF4FC491CC23A1F0BD
:103D000081110E94071EEC2FF0E0EE0FFF1FE2551D
:103D1000FF4FA591B4918FB7F894EC91111108C0A1
:103D2000D095DE23DC938FBFDF91CF911F91089553
:103D3000DE2BF8CFCF93DF93282F30E0F901E8593D
:103D4000FF4F8491F901E458FF4FD491F901E057F6
:103D5000FF4FC491CC23A1F081110E94071EEC2FCC
:103D6000F0E0EE0FFF1FEC55FF4FA591B491EC91E1
:103D7000ED2381E090E009F480E0DF91CF91089598
:103D800080E090E0FACF4F925F926F927F92AF9275
:103D9000BF92CF92DF92EF92FF920F931F93CF9338
:103DA000DF93CDB7DEB729013A019B01AC0124199D
:103DB00035094609570989899A89AB89BC89BC01AB
:103DC000CD016A197B098C099D090E946725A8010C
:103DD000970124193509460957090E94A525CA01EA
:103DE000B9016A0D7B1D8C1D9D1DDF91CF911F9127
:103DF0000F91FF90EF90DF90CF90BF90AF907F90AA
:103E00006F905F904F90089580917E0790917F070B
:103E1000891B990B089590917F0780917E072FEF62
:103E20003FEF981748F4E92FF0E0E058F84F208171
:103E300030E09F5F90937F07C9010895E0917F076D
:103E400080917E07E81730F4F0E0E058F84F808169
:103E500090E008958FEF9FEF08950895CF93DF933B
:103E60001F92CDB7DEB7698320915A072223F9F05C
:103E700020915B07203258F021E030E0FC013383D1
:103E8000228390E080E00F90DF91CF9108958091A0
:103E90005C07E82FF0E0E35AF84F998190838F5F39
:103EA00080935C0780935B0781E090E0ECCF61E05A
:103EB000CE0101960E94ED20F7CFCF92DF92EF92D4
:103EC000FF920F931F93CF93DF937C01CB018A0165
:103ED00020915A07222389F0EB016B01C40ED51EF5
:103EE000CC15DD0569F06991D701ED91FC91019048
:103EF000F081E02DC7010995F3CF642F0E94ED20DA
:103F0000C801DF91CF911F910F91FF90EF90DF904B
:103F1000CF90089510927F0710927E0710925C0751
:103F200010925B070C94302081E080935A076093D5
:103F30007D0710925C0710925B0708950C94941F04
:103F40000F93062F21E040915B076DE577E08091AC
:103F50007D070E94962010925C0710925B071092DA
:103F60005A070F9108954F925F926F927F92AF928E
:103F7000BF92CF92EF92FF920F931F93CF93DF9355
:103F80005C01F62ED42F28013901EE2019F10E9490
:103F9000941FCE2DC43008F0C3E0C150B8F028E023
:103FA000C29FC0011124A301920104C056954795F8
:103FB000379527958A95D2F7B901D501ED91FC91F6
:103FC0000190F081E02DC5010995E7CF60E0C501C2
:103FD0000E94A01F4D2FD13208F040E22C2D60E846
:103FE00077E08F2D0E944E2010927F0780937E07EE
:103FF000DF91CF911F910F91FF90EF90CF90BF90E5
:10400000AF907F906F905F904F900895CF92EF9216
:104010000F931F93C22EE12C00E010E098010E9444
:10402000B31F1F910F91EF90CF90089521E00C9452
:10403000062021E00C94062061E00C94A01FEEE421
:10404000F7E01382128288EE93E0A0E0B0E0848370
:104050009583A683B7838BE692E09183808308954E
:1040600010920D0881E080930B0810920A0861E01D
:1040700082E10E946C1E61E083E10E946C1EE9EB0C
:10408000F0E080818E7F808380818D7F808388E4D3
:104090008093B80085E48093BC000895413208F015
:1040A00043C090910D089111FCCF91E090930D08C1
:1040B00020930B082FEF2093A0071092E507240F01
:1040C0002093E40790930C0890910C08880F892B9B
:1040D00080930C0880910A08813009F510920A0833
:1040E00080910C088093BB008091BC0083FDF8CFC9
:1040F00085EC8093BC0080910D088130E1F38091C4
:10410000E507841710F44091E507A6EEB7E0962F77
:10411000FB018E2F891B841720F0842F089585EED4
:10412000E8CF8D918193F5CF40E0F7CF0F934132E7
:1041300008F04BC090910D089111FCCF92E0909344
:104140000D0800930B089FEF9093A0071092E507CE
:104150004093E407362FA6EEB7E0FB019E2F931B9A
:10416000941770F110920C0890910C08880F892B0D
:1041700080930C0880910A08813029F510920A0872
:1041800080910C088093BB008091BC0083FDF8CF28
:1041900085EC8093BC00222321F080910D088230B1
:1041A000D1F38091A0078F3F91F08091A0078032DA
:1041B00081F08091A007803371F084E00F91089521
:1041C00091919D93CBCF85EEE4CF81E0F7CF80E056
:1041D000F5CF82E0F3CF83E0F1CF2091C207260F25
:1041E0003327331F21323105ECF420910D08FC01F7
:1041F00090E080E0243069F082E00895A091C20749
:104200002191AC014C53584FA40FB52FB11D2C93E5
:104210000196861798F38091C207680F6093C207D2
:1042200080E0089581E0089585ED8093BC00809141
:10423000BC0084FDFCCF10920D08089585EC80939E
:10424000BC0010920D0808951F920F920FB60F92A6
:1042500011242F933F934F935F936F937F938F938B
:104260009F93AF93BF93EF93FF938091B900887FA3
:10427000803609F44CC008F03FC0883209F4A8C069
:1042800018F5803109F49CC0B8F4882309F4F9C00A
:10429000883009F495C0FF91EF91BF91AF919F9144
:1042A0008F917F916F915F914F913F912F910F90DF
:1042B0000FBE0F901F901895883109F489C0803285
:1042C00051F78093A00715C0803409F49EC048F4CC
:1042D0008033B9F38833F9F68093A0070E941E213A
:1042E000DACF803509F485C0883509F496C0883462
:1042F00091F60E941421CFCF883909F48CC038F58B
:10430000883729F050F4883611F0803721F683E0A1
:1043100080930D081092A10757C0883809F47BC01C
:10432000803919F0803809F0B6CF8091A10780322A
:1043300008F071C0E091A10781E08E0F8093A10782
:104340008091BB00F0E0EE55F84F80833DC0803B8C
:1043500039F0E0F4803A09F479C0883A09F09BCF4B
:1043600084E080930D081092C3071092C207E09179
:104370000808F091090809958091C20781110FC0C2
:1043800081E08093C2071092C40709C0803C09F401
:1043900076C0883C09F473C0883B09F07CCFE0917B
:1043A000C30781E08E0F8093C307F0E0EC53F84F12
:1043B00080818093BB009091C3078091C20729C080
:1043C00080910C088093BB0085EC8093BC0063CF88
:1043D0009091E5078091E407981758F5E091E5077B
:1043E00081E08E0F8093E507F0E0EA51F84F80817D
:1043F000E9CFE091E50781E08E0F8093E50780919A
:10440000BB00F0E0EA51F84F80839091E50780917E
:10441000E4079817C8F285E8D8CFE091E50781E076
:104420008E0F8093E5078091BB00F0E0EA51F84FD2
:10443000808380910B0881115CCF81E080930A0812
:1044400084EA8093BC0010920D0825CF0E941E21A3
:104450008091A107803230F4E091A107F0E0EE55A1
:10446000F84F10826091A10770E0E0910608F0918A
:10447000070882EA97E009951092A1070CCF85EC16
:10448000E0CF1092A00735CFFC0184819581A681F1
:10449000B7814081518162817381840F951FA61F6E
:1044A000B71F84839583A683B7830895FC01808515
:1044B00091858130910551F08230910549F020E0DD
:1044C00030E0A901892B61F40C945F020C94530233
:1044D0000E94530228EE33E040E050E00E94832522
:1044E000CA01B90108950F931F93CF93DF93EC0195
:1044F000488359836A837B83398728870E945622A1
:10450000088119812A813B81DC01CB01800F911F39
:10451000A21FB31F8C839D83AE83BF83DF91CF9196
:104520001F910F910895CF92DF92EF92FF92CF9358
:10453000DF93EC010E94562221E0CC80DD80EE80EA
:10454000FF806C157D058E059F0508F020E0822F09
:10455000DF91CF91FF90EF90DF90CF9008950E9470
:10456000932291E0892708950F931F93CF93DF93B0
:10457000EC010E945622088119812A813B81DC01CD
:10458000CB01800F911FA21FB31F8C839D83AE832D
:10459000BF83DF91CF911F910F910895F8940C94F0
:1045A000E4255058BB27AA270E94E9220C94A32493
:1045B0000E94952438F00E949C2420F039F49F3FFB
:1045C00019F426F40C9492240EF4E095E7FB0C9475
:1045D0006324E92F0E94B42458F3BA1762077307C3
:1045E0008407950720F079F4A6F50C94EE240EF4D8
:1045F000E0950B2EBA2FA02D0B01B90190010C01F3
:10460000CA01A0011124FF27591B99F0593F50F40A
:10461000503E68F11A16F040A22F232F342F442762
:10462000585FF3CF469537952795A795F04053955A
:10463000C9F77EF41F16BA0B620B730B840BBAF02A
:104640009150A1F0FF0FBB1F661F771F881FC2F795
:104650000EC0BA0F621F731F841F48F487957795A9
:104660006795B795F7959E3F08F0B0CF9395880F63
:1046700008F09927EE0F9795879508950E943F249B
:1046800008F481E008950E9457230C94A3240E940B
:104690009C2458F00E94952440F029F45F3F29F0B3
:1046A0000C94632451110C94EF240C9492240E94D6
:1046B000B42468F39923B1F3552391F3951B550B5B
:1046C000BB27AA2762177307840738F09F5F5F4FE5
:1046D000220F331F441FAA1FA9F335D00E2E3AF024
:1046E000E0E832D091505040E695001CCAF72BD03C
:1046F000FE2F29D0660F771F881FBB1F261737078D
:104700004807AB07B0E809F0BB0B802DBF01FF27BE
:1047100093585F4F3AF09E3F510578F00C94632414
:104720000C94EF245F3FE4F3983ED4F3869577959D
:104730006795B795F7959F5FC9F7880F911D969577
:10474000879597F90895E1E0660F771F881FBB1FD3
:10475000621773078407BA0720F0621B730B840B80
:10476000BA0BEE1F88F7E09508950E94BC23689469
:10477000B1110C94EF2408950E94BC2488F09F5737
:1047800098F0B92F9927B751B0F0E1F0660F771F75
:10479000881F991F1AF0BA95C9F714C0B13091F06B
:1047A0000E94EE24B1E008950C94EE24672F782F38
:1047B0008827B85F39F0B93FCCF386957795679530
:1047C000B395D9F73EF490958095709561957F4F9C
:1047D0008F4F9F4F0895E89409C097FB3EF4909542
:1047E0008095709561957F4F8F4F9F4F9923A9F0CA
:1047F000F92F96E9BB279395F69587957795679559
:10480000B795F111F8CFFAF4BB0F11F460FF1BC09C
:104810006F5F7F4F8F4F9F4F16C0882311F096E92F
:1048200011C0772321F09EE8872F762F05C06623DD
:1048300071F096E8862F70E060E02AF09A95660F96
:10484000771F881FDAF7880F9695879597F908954F
:104850000E94D62490F09F3748F4911116F00C94E2
:10486000EF2460E070E080E89FEB089526F41B16CB
:10487000611D711D811D0C9469240C948424990F71
:104880000008550FAA0BE0E8FEEF16161706E8071A
:10489000F907C0F012161306E407F50798F0621B3B
:1048A000730B840B950B39F40A2661F0232B242B10
:1048B000252B21F408950A2609F4A140A6958FEF2F
:1048C000811D811D089597F99F6780E870E060E081
:1048D0000895882371F4772321F09850872B762F41
:1048E00007C0662311F499270DC09051862B70E004
:1048F00060E02AF09A95660F771F881FDAF7880F15
:104900009695879597F908959F3F31F0915020F43F
:10491000879577956795B795880F911D969587959B
:1049200097F908959FEF80EC089500240A941616D5
:10493000170618060906089500240A94121613068D
:10494000140605060895092E0394000C11F488231B
:1049500052F0BB0F40F4BF2B11F460FF04C06F5F37
:104960007F4F8F4F9F4F089557FD9058440F551F0D
:1049700059F05F3F71F04795880F97FB991F61F0E1
:104980009F3F79F087950895121613061406551F58
:10499000F2CF4695F1DF08C0161617061806991FC4
:1049A000F1CF869571056105089408950E94BC2495
:1049B000A0F0BEE7B91788F4BB279F3860F416163D
:1049C000B11D672F782F8827985FF7CF8695779549
:1049D0006795B11D93959639C8F30895E894BB2760
:1049E00066277727CB0197F908950E943F2408F4A2
:1049F0008FEF08950E940D250C94A3240E94952406
:104A000038F00E949C2420F0952311F00C9463242C
:104A10000C94922411240C94EF240E94B42470F37B
:104A2000959FC1F3950F50E0551F629FF001729F53
:104A3000BB27F00DB11D639FAA27F00DB11DAA1F62
:104A4000649F6627B00DA11D661F829F2227B00DAF
:104A5000A11D621F739FB00DA11D621F839FA00D3A
:104A6000611D221F749F3327A00D611D231F849F8A
:104A7000600D211D822F762F6A2F11249F575040E1
:104A80009AF0F1F088234AF0EE0FFF1FBB1F661F5C
:104A9000771F881F91505040A9F79E3F510580F025
:104AA0000C9463240C94EF245F3FE4F3983ED4F31A
:104AB000869577956795B795F795E7959F5FC1F7C9
:104AC000FE2B880F911D9695879597F90895DB0128
:104AD0008F939F930E94D925BF91AF91A29F800D84
:104AE000911DA39F900DB29F900D11240895991BC5
:104AF00079E004C0991F961708F0961B881F7A95D5
:104B0000C9F780950895A1E21A2EAA1BBB1BFD01CF
:104B10000DC0AA1FBB1FEE1FFF1FA217B307E4079C
:104B2000F50720F0A21BB30BE40BF50B661F771FF4
:104B3000881F991F1A9469F76095709580959095D4
:104B40009B01AC01BD01CF010895052E97FB1EF41A
:104B500000940E94BC2557FD07D00E94832507FCC6
:104B600003D04EF40C94BC2550954095309521957A
:104B70003F4F4F4F5F4F0895909580957095619589
:104B80007F4F8F4F9F4F0895EE0FFF1F0590F491B9
:104B9000E02D0994A29FB001B39FC001A39F700DA7
:104BA000811D1124911DB29F700D811D1124911D35
:104BB00008950E94CA25A59F900DB49F900DA49FB3
:0C4BC000800D911D11240895F894FFCF82
:104BCC000019324A62788DA2B4C5D4E1ECF4FAFD36
:104BDC00FF050006000700017C72657365740063B5
:104BEC00616C6962726174696E672E2E2E007C6333
:104BFC00616C6962726174696E6700666572726F6E
:104C0C006D61676E65746963206D6561737572653E
:104C1C0072207365747570206572726F722E2E2EF1
:104C2C00007C73657475705F6572726F7200636F70
:104C3C006E647563746976697479206D65617375DA
:104C4C00726572207365747570206572726F722E46
:104C5C002E2E0072656164792E2E2E007C72756E7C
:104C6C006E696E6700000000007503AD04F8021257
:104C7C0003040355030D0A0001030206040C080982
:104C8C00736C6F743A20006F626A6563742066659A
:104C9C0072726F6D61676E657469633F20006F623D
:104CAC006A65637420636F6E647563746976653FBF
:104CBC0020006F626A6563742068656176793F20B5
:104CCC000061766572616765206F626A6563742046
:104CDC0070726F66696C652073616D706C653A20DB
:104CEC00007C636F696E007C6269675F6E796C6FC4
:104CFC006E5F6E7574007C736D616C6C5F6272615B
:104D0C0073735F6E7574007C6269675F6272617346
:104D1C00735F6E7574007C736D616C6C5F7374651E
:104D2C00656C5F6E757400000000002E1F5D1F0423
:084D3C001F0B1F1E1F2D1F009D
:00000001FF
